{
  "_format": "hh-sol-artifact-1",
  "contractName": "CarbonOffset",
  "sourceName": "contracts/CarbonOffset.sol",
  "abi": [
    {
      "inputs": [
        {
          "internalType": "uint256",
          "name": "initialSupply",
          "type": "uint256"
        },
        {
          "internalType": "uint256",
          "name": "_tokenPrice",
          "type": "uint256"
        }
      ],
      "stateMutability": "nonpayable",
      "type": "constructor"
    },
    {
      "inputs": [
        {
          "internalType": "address",
          "name": "spender",
          "type": "address"
        },
        {
          "internalType": "uint256",
          "name": "allowance",
          "type": "uint256"
        },
        {
          "internalType": "uint256",
          "name": "needed",
          "type": "uint256"
        }
      ],
      "name": "ERC20InsufficientAllowance",
      "type": "error"
    },
    {
      "inputs": [
        {
          "internalType": "address",
          "name": "sender",
          "type": "address"
        },
        {
          "internalType": "uint256",
          "name": "balance",
          "type": "uint256"
        },
        {
          "internalType": "uint256",
          "name": "needed",
          "type": "uint256"
        }
      ],
      "name": "ERC20InsufficientBalance",
      "type": "error"
    },
    {
      "inputs": [
        {
          "internalType": "address",
          "name": "approver",
          "type": "address"
        }
      ],
      "name": "ERC20InvalidApprover",
      "type": "error"
    },
    {
      "inputs": [
        {
          "internalType": "address",
          "name": "receiver",
          "type": "address"
        }
      ],
      "name": "ERC20InvalidReceiver",
      "type": "error"
    },
    {
      "inputs": [
        {
          "internalType": "address",
          "name": "sender",
          "type": "address"
        }
      ],
      "name": "ERC20InvalidSender",
      "type": "error"
    },
    {
      "inputs": [
        {
          "internalType": "address",
          "name": "spender",
          "type": "address"
        }
      ],
      "name": "ERC20InvalidSpender",
      "type": "error"
    },
    {
      "inputs": [
        {
          "internalType": "address",
          "name": "owner",
          "type": "address"
        }
      ],
      "name": "OwnableInvalidOwner",
      "type": "error"
    },
    {
      "inputs": [
        {
          "internalType": "address",
          "name": "account",
          "type": "address"
        }
      ],
      "name": "OwnableUnauthorizedAccount",
      "type": "error"
    },
    {
      "anonymous": false,
      "inputs": [
        {
          "indexed": true,
          "internalType": "address",
          "name": "owner",
          "type": "address"
        },
        {
          "indexed": true,
          "internalType": "address",
          "name": "spender",
          "type": "address"
        },
        {
          "indexed": false,
          "internalType": "uint256",
          "name": "value",
          "type": "uint256"
        }
      ],
      "name": "Approval",
      "type": "event"
    },
    {
      "anonymous": false,
      "inputs": [
        {
          "indexed": false,
          "internalType": "string",
          "name": "projectId",
          "type": "string"
        },
        {
          "indexed": false,
          "internalType": "address",
          "name": "auditor",
          "type": "address"
        },
        {
          "indexed": false,
          "internalType": "string",
          "name": "ipfsHash",
          "type": "string"
        },
        {
          "indexed": false,
          "internalType": "bool",
          "name": "isApproved",
          "type": "bool"
        }
      ],
      "name": "AuditPerformed",
      "type": "event"
    },
    {
      "anonymous": false,
      "inputs": [
        {
          "indexed": false,
          "internalType": "address",
          "name": "auditor",
          "type": "address"
        },
        {
          "indexed": false,
          "internalType": "uint8[]",
          "name": "specializations",
          "type": "uint8[]"
        }
      ],
      "name": "AuditorRegistered",
      "type": "event"
    },
    {
      "anonymous": false,
      "inputs": [
        {
          "indexed": false,
          "internalType": "address",
          "name": "developer",
          "type": "address"
        }
      ],
      "name": "DeveloperRegistered",
      "type": "event"
    },
    {
      "anonymous": false,
      "inputs": [
        {
          "indexed": false,
          "internalType": "string",
          "name": "projectId",
          "type": "string"
        },
        {
          "indexed": false,
          "internalType": "address",
          "name": "developer",
          "type": "address"
        },
        {
          "indexed": false,
          "internalType": "string",
          "name": "ipfsHash",
          "type": "string"
        }
      ],
      "name": "DocumentAdded",
      "type": "event"
    },
    {
      "anonymous": false,
      "inputs": [
        {
          "indexed": false,
          "internalType": "address",
          "name": "investor",
          "type": "address"
        },
        {
          "indexed": false,
          "internalType": "string",
          "name": "ipfsHash",
          "type": "string"
        }
      ],
      "name": "DocumentAdded",
      "type": "event"
    },
    {
      "anonymous": false,
      "inputs": [
        {
          "indexed": false,
          "internalType": "string",
          "name": "projectId",
          "type": "string"
        },
        {
          "indexed": false,
          "internalType": "address",
          "name": "developer",
          "type": "address"
        },
        {
          "indexed": false,
          "internalType": "uint256",
          "name": "amount",
          "type": "uint256"
        }
      ],
      "name": "FundsWithdrawn",
      "type": "event"
    },
    {
      "anonymous": false,
      "inputs": [
        {
          "indexed": false,
          "internalType": "string",
          "name": "projectId",
          "type": "string"
        },
        {
          "indexed": false,
          "internalType": "address",
          "name": "investor",
          "type": "address"
        },
        {
          "indexed": false,
          "internalType": "uint256",
          "name": "amount",
          "type": "uint256"
        },
        {
          "indexed": false,
          "internalType": "uint256",
          "name": "startTime",
          "type": "uint256"
        },
        {
          "indexed": false,
          "internalType": "uint256",
          "name": "endTime",
          "type": "uint256"
        }
      ],
      "name": "InvestmentMade",
      "type": "event"
    },
    {
      "anonymous": false,
      "inputs": [
        {
          "indexed": false,
          "internalType": "address",
          "name": "investor",
          "type": "address"
        }
      ],
      "name": "InvestorRegistered",
      "type": "event"
    },
    {
      "anonymous": false,
      "inputs": [
        {
          "indexed": true,
          "internalType": "address",
          "name": "previousOwner",
          "type": "address"
        },
        {
          "indexed": true,
          "internalType": "address",
          "name": "newOwner",
          "type": "address"
        }
      ],
      "name": "OwnershipTransferred",
      "type": "event"
    },
    {
      "anonymous": false,
      "inputs": [
        {
          "indexed": false,
          "internalType": "string",
          "name": "projectId",
          "type": "string"
        },
        {
          "indexed": false,
          "internalType": "address",
          "name": "developer",
          "type": "address"
        }
      ],
      "name": "ProjectCreated",
      "type": "event"
    },
    {
      "anonymous": false,
      "inputs": [
        {
          "indexed": false,
          "internalType": "address",
          "name": "auditor",
          "type": "address"
        },
        {
          "indexed": false,
          "internalType": "uint8",
          "name": "specialization",
          "type": "uint8"
        }
      ],
      "name": "SpecializationAdded",
      "type": "event"
    },
    {
      "anonymous": false,
      "inputs": [
        {
          "indexed": true,
          "internalType": "address",
          "name": "from",
          "type": "address"
        },
        {
          "indexed": true,
          "internalType": "address",
          "name": "to",
          "type": "address"
        },
        {
          "indexed": false,
          "internalType": "uint256",
          "name": "value",
          "type": "uint256"
        }
      ],
      "name": "Transfer",
      "type": "event"
    },
    {
      "inputs": [
        {
          "internalType": "uint8",
          "name": "specialization",
          "type": "uint8"
        }
      ],
      "name": "addAuditorSpecialization",
      "outputs": [],
      "stateMutability": "nonpayable",
      "type": "function"
    },
    {
      "inputs": [
        {
          "internalType": "string",
          "name": "ipfsHash",
          "type": "string"
        }
      ],
      "name": "addInvestorDocument",
      "outputs": [],
      "stateMutability": "nonpayable",
      "type": "function"
    },
    {
      "inputs": [
        {
          "internalType": "string[]",
          "name": "ipfsHashes",
          "type": "string[]"
        }
      ],
      "name": "addInvestorDocuments",
      "outputs": [],
      "stateMutability": "nonpayable",
      "type": "function"
    },
    {
      "inputs": [
        {
          "internalType": "string",
          "name": "projectId",
          "type": "string"
        },
        {
          "internalType": "string",
          "name": "ipfsHash",
          "type": "string"
        }
      ],
      "name": "addProjectDocument",
      "outputs": [],
      "stateMutability": "nonpayable",
      "type": "function"
    },
    {
      "inputs": [
        {
          "internalType": "string",
          "name": "projectId",
          "type": "string"
        },
        {
          "internalType": "string[]",
          "name": "ipfsHashes",
          "type": "string[]"
        }
      ],
      "name": "addProjectDocuments",
      "outputs": [],
      "stateMutability": "nonpayable",
      "type": "function"
    },
    {
      "inputs": [
        {
          "internalType": "address",
          "name": "owner",
          "type": "address"
        },
        {
          "internalType": "address",
          "name": "spender",
          "type": "address"
        }
      ],
      "name": "allowance",
      "outputs": [
        {
          "internalType": "uint256",
          "name": "",
          "type": "uint256"
        }
      ],
      "stateMutability": "view",
      "type": "function"
    },
    {
      "inputs": [
        {
          "internalType": "address",
          "name": "spender",
          "type": "address"
        },
        {
          "internalType": "uint256",
          "name": "value",
          "type": "uint256"
        }
      ],
      "name": "approve",
      "outputs": [
        {
          "internalType": "bool",
          "name": "",
          "type": "bool"
        }
      ],
      "stateMutability": "nonpayable",
      "type": "function"
    },
    {
      "inputs": [
        {
          "internalType": "string",
          "name": "",
          "type": "string"
        },
        {
          "internalType": "uint256",
          "name": "",
          "type": "uint256"
        }
      ],
      "name": "auditRecords",
      "outputs": [
        {
          "internalType": "address",
          "name": "auditor",
          "type": "address"
        },
        {
          "internalType": "uint8",
          "name": "specialization",
          "type": "uint8"
        },
        {
          "internalType": "string",
          "name": "auditIpfsHash",
          "type": "string"
        },
        {
          "internalType": "bool",
          "name": "isApproved",
          "type": "bool"
        }
      ],
      "stateMutability": "view",
      "type": "function"
    },
    {
      "inputs": [
        {
          "internalType": "address",
          "name": "",
          "type": "address"
        }
      ],
      "name": "auditors",
      "outputs": [
        {
          "internalType": "address",
          "name": "auditorAddress",
          "type": "address"
        }
      ],
      "stateMutability": "view",
      "type": "function"
    },
    {
      "inputs": [
        {
          "internalType": "address",
          "name": "account",
          "type": "address"
        }
      ],
      "name": "balanceOf",
      "outputs": [
        {
          "internalType": "uint256",
          "name": "",
          "type": "uint256"
        }
      ],
      "stateMutability": "view",
      "type": "function"
    },
    {
      "inputs": [
        {
          "internalType": "string",
          "name": "projectId",
          "type": "string"
        }
      ],
      "name": "createProject",
      "outputs": [],
      "stateMutability": "nonpayable",
      "type": "function"
    },
    {
      "inputs": [],
      "name": "decimals",
      "outputs": [
        {
          "internalType": "uint8",
          "name": "",
          "type": "uint8"
        }
      ],
      "stateMutability": "view",
      "type": "function"
    },
    {
      "inputs": [
        {
          "internalType": "address",
          "name": "",
          "type": "address"
        }
      ],
      "name": "developers",
      "outputs": [
        {
          "internalType": "address",
          "name": "developerAddress",
          "type": "address"
        }
      ],
      "stateMutability": "view",
      "type": "function"
    },
    {
      "inputs": [
        {
          "internalType": "string",
          "name": "projectId",
          "type": "string"
        },
        {
          "internalType": "uint256",
          "name": "amount",
          "type": "uint256"
        },
        {
          "internalType": "uint256",
          "name": "duration",
          "type": "uint256"
        }
      ],
      "name": "investInProject",
      "outputs": [],
      "stateMutability": "nonpayable",
      "type": "function"
    },
    {
      "inputs": [
        {
          "internalType": "address",
          "name": "",
          "type": "address"
        }
      ],
      "name": "investors",
      "outputs": [
        {
          "internalType": "address",
          "name": "investorAddress",
          "type": "address"
        },
        {
          "internalType": "bool",
          "name": "isApproved",
          "type": "bool"
        }
      ],
      "stateMutability": "view",
      "type": "function"
    },
    {
      "inputs": [
        {
          "internalType": "address",
          "name": "to",
          "type": "address"
        }
      ],
      "name": "mint",
      "outputs": [],
      "stateMutability": "payable",
      "type": "function"
    },
    {
      "inputs": [],
      "name": "name",
      "outputs": [
        {
          "internalType": "string",
          "name": "",
          "type": "string"
        }
      ],
      "stateMutability": "view",
      "type": "function"
    },
    {
      "inputs": [],
      "name": "owner",
      "outputs": [
        {
          "internalType": "address",
          "name": "",
          "type": "address"
        }
      ],
      "stateMutability": "view",
      "type": "function"
    },
    {
      "inputs": [
        {
          "internalType": "string",
          "name": "",
          "type": "string"
        }
      ],
      "name": "projects",
      "outputs": [
        {
          "internalType": "bool",
          "name": "isActive",
          "type": "bool"
        },
        {
          "internalType": "uint256",
          "name": "fundsReceived",
          "type": "uint256"
        },
        {
          "internalType": "uint256",
          "name": "lastAuditTime",
          "type": "uint256"
        }
      ],
      "stateMutability": "view",
      "type": "function"
    },
    {
      "inputs": [
        {
          "internalType": "uint8[]",
          "name": "specializations",
          "type": "uint8[]"
        }
      ],
      "name": "registerAuditor",
      "outputs": [],
      "stateMutability": "nonpayable",
      "type": "function"
    },
    {
      "inputs": [],
      "name": "registerDeveloper",
      "outputs": [],
      "stateMutability": "nonpayable",
      "type": "function"
    },
    {
      "inputs": [],
      "name": "registerInvestor",
      "outputs": [],
      "stateMutability": "nonpayable",
      "type": "function"
    },
    {
      "inputs": [],
      "name": "renounceOwnership",
      "outputs": [],
      "stateMutability": "nonpayable",
      "type": "function"
    },
    {
      "inputs": [],
      "name": "symbol",
      "outputs": [
        {
          "internalType": "string",
          "name": "",
          "type": "string"
        }
      ],
      "stateMutability": "view",
      "type": "function"
    },
    {
      "inputs": [],
      "name": "totalSupply",
      "outputs": [
        {
          "internalType": "uint256",
          "name": "",
          "type": "uint256"
        }
      ],
      "stateMutability": "view",
      "type": "function"
    },
    {
      "inputs": [
        {
          "internalType": "address",
          "name": "to",
          "type": "address"
        },
        {
          "internalType": "uint256",
          "name": "value",
          "type": "uint256"
        }
      ],
      "name": "transfer",
      "outputs": [
        {
          "internalType": "bool",
          "name": "",
          "type": "bool"
        }
      ],
      "stateMutability": "nonpayable",
      "type": "function"
    },
    {
      "inputs": [
        {
          "internalType": "address",
          "name": "from",
          "type": "address"
        },
        {
          "internalType": "address",
          "name": "to",
          "type": "address"
        },
        {
          "internalType": "uint256",
          "name": "value",
          "type": "uint256"
        }
      ],
      "name": "transferFrom",
      "outputs": [
        {
          "internalType": "bool",
          "name": "",
          "type": "bool"
        }
      ],
      "stateMutability": "nonpayable",
      "type": "function"
    },
    {
      "inputs": [
        {
          "internalType": "address",
          "name": "newOwner",
          "type": "address"
        }
      ],
      "name": "transferOwnership",
      "outputs": [],
      "stateMutability": "nonpayable",
      "type": "function"
    },
    {
      "inputs": [
        {
          "internalType": "string",
          "name": "projectId",
          "type": "string"
        },
        {
          "internalType": "uint8",
          "name": "specialization",
          "type": "uint8"
        },
        {
          "internalType": "string",
          "name": "ipfsHash",
          "type": "string"
        },
        {
          "internalType": "bool",
          "name": "isApproved",
          "type": "bool"
        }
      ],
      "name": "uploadAuditRecord",
      "outputs": [],
      "stateMutability": "nonpayable",
      "type": "function"
    },
    {
      "inputs": [
        {
          "internalType": "string",
          "name": "projectId",
          "type": "string"
        }
      ],
      "name": "withdrawFunds",
      "outputs": [],
      "stateMutability": "nonpayable",
      "type": "function"
    },
    {
      "stateMutability": "payable",
      "type": "receive"
    }
  ],
  "bytecode": "0x6080604052620186a06006553480156200001857600080fd5b50604051620051b3380380620051b383398181016040528101906200003e91906200053d565b6040518060400160405280600b81526020017f436172626f6e546f6b656e0000000000000000000000000000000000000000008152506040518060400160405280600381526020017f43544b000000000000000000000000000000000000000000000000000000000081525033600073ffffffffffffffffffffffffffffffffffffffff168173ffffffffffffffffffffffffffffffffffffffff1603620001205760006040517f1e4fbdf7000000000000000000000000000000000000000000000000000000008152600401620001179190620005c9565b60405180910390fd5b62000131816200017960201b60201c565b50816004908162000143919062000856565b50806005908162000155919062000856565b505050806006819055506200017133836200023d60201b60201c565b505062000a12565b60008060009054906101000a900473ffffffffffffffffffffffffffffffffffffffff169050816000806101000a81548173ffffffffffffffffffffffffffffffffffffffff021916908373ffffffffffffffffffffffffffffffffffffffff1602179055508173ffffffffffffffffffffffffffffffffffffffff168173ffffffffffffffffffffffffffffffffffffffff167f8be0079c531659141344cd1fd0a4f28419497f9722a3daafe3b4186f6b6457e060405160405180910390a35050565b600073ffffffffffffffffffffffffffffffffffffffff168273ffffffffffffffffffffffffffffffffffffffff1603620002b25760006040517fec442f05000000000000000000000000000000000000000000000000000000008152600401620002a99190620005c9565b60405180910390fd5b620002c660008383620002ca60201b60201c565b5050565b600073ffffffffffffffffffffffffffffffffffffffff168373ffffffffffffffffffffffffffffffffffffffff1603620003205780600360008282546200031391906200096c565b92505081905550620003f8565b6000600160008573ffffffffffffffffffffffffffffffffffffffff1673ffffffffffffffffffffffffffffffffffffffff16815260200190815260200160002054905081811015620003b0578381836040517fe450d38c000000000000000000000000000000000000000000000000000000008152600401620003a793929190620009b8565b60405180910390fd5b818103600160008673ffffffffffffffffffffffffffffffffffffffff1673ffffffffffffffffffffffffffffffffffffffff16815260200190815260200160002081905550505b600073ffffffffffffffffffffffffffffffffffffffff168273ffffffffffffffffffffffffffffffffffffffff160362000443578060036000828254039250508190555062000491565b80600160008473ffffffffffffffffffffffffffffffffffffffff1673ffffffffffffffffffffffffffffffffffffffff168152602001908152602001600020600082825401925050819055505b8173ffffffffffffffffffffffffffffffffffffffff168373ffffffffffffffffffffffffffffffffffffffff167fddf252ad1be2c89b69c2b068fc378daa952ba7f163c4a11628f55a4df523b3ef83604051620004f09190620009f5565b60405180910390a3505050565b600080fd5b6000819050919050565b620005178162000502565b81146200052357600080fd5b50565b60008151905062000537816200050c565b92915050565b60008060408385031215620005575762000556620004fd565b5b6000620005678582860162000526565b92505060206200057a8582860162000526565b9150509250929050565b600073ffffffffffffffffffffffffffffffffffffffff82169050919050565b6000620005b18262000584565b9050919050565b620005c381620005a4565b82525050565b6000602082019050620005e06000830184620005b8565b92915050565b600081519050919050565b7f4e487b7100000000000000000000000000000000000000000000000000000000600052604160045260246000fd5b7f4e487b7100000000000000000000000000000000000000000000000000000000600052602260045260246000fd5b600060028204905060018216806200066857607f821691505b6020821081036200067e576200067d62000620565b5b50919050565b60008190508160005260206000209050919050565b60006020601f8301049050919050565b600082821b905092915050565b600060088302620006e87fffffffffffffffffffffffffffffffffffffffffffffffffffffffffffffffff82620006a9565b620006f48683620006a9565b95508019841693508086168417925050509392505050565b6000819050919050565b600062000737620007316200072b8462000502565b6200070c565b62000502565b9050919050565b6000819050919050565b620007538362000716565b6200076b62000762826200073e565b848454620006b6565b825550505050565b600090565b6200078262000773565b6200078f81848462000748565b505050565b5b81811015620007b757620007ab60008262000778565b60018101905062000795565b5050565b601f8211156200080657620007d08162000684565b620007db8462000699565b81016020851015620007eb578190505b62000803620007fa8562000699565b83018262000794565b50505b505050565b600082821c905092915050565b60006200082b600019846008026200080b565b1980831691505092915050565b600062000846838362000818565b9150826002028217905092915050565b6200086182620005e6565b67ffffffffffffffff8111156200087d576200087c620005f1565b5b6200088982546200064f565b62000896828285620007bb565b600060209050601f831160018114620008ce5760008415620008b9578287015190505b620008c5858262000838565b86555062000935565b601f198416620008de8662000684565b60005b828110156200090857848901518255600182019150602085019450602081019050620008e1565b8683101562000928578489015162000924601f89168262000818565b8355505b6001600288020188555050505b505050505050565b7f4e487b7100000000000000000000000000000000000000000000000000000000600052601160045260246000fd5b6000620009798262000502565b9150620009868362000502565b9250828201905080821115620009a157620009a06200093d565b5b92915050565b620009b28162000502565b82525050565b6000606082019050620009cf6000830186620005b8565b620009de6020830185620009a7565b620009ed6040830184620009a7565b949350505050565b600060208201905062000a0c6000830184620009a7565b92915050565b6147918062000a226000396000f3fe6080604052600436106101d15760003560e01c80636f7bc9be116100f7578063a2d3155411610095578063d9b5b60411610064578063d9b5b60414610688578063dd62ed3e146106b1578063ebea4b4c146106ee578063f2fde38b14610717576101d8565b8063a2d31554146105e2578063a9059cbb1461060b578063ca1700a914610648578063cbac6d7c1461065f576101d8565b80638da5cb5b116100d15780638da5cb5b146105245780638dac044d1461054f57806391c9b2681461057857806395d89b41146105b7576101d8565b80636f7bc9be1461049257806370a08231146104d0578063715018a61461050d576101d8565b8063313ce5671161016f5780634b5e8d631161013e5780634b5e8d63146103e257806361fd5c20146103f9578063676248a9146104365780636a62784214610476576101d8565b8063313ce56714610328578063348a406e1461035357806335abfa831461037c57806347f9aa9f146103a5576101d8565b806315ee4df1116101ab57806315ee4df11461026e57806318160ddd14610297578063234db56f146102c257806323b872dd146102eb576101d8565b806303b86b5a146101dd57806306fdde0314610206578063095ea7b314610231576101d8565b366101d857005b600080fd5b3480156101e957600080fd5b5061020460048036038101906101ff91906130f7565b610740565b005b34801561021257600080fd5b5061021b610b10565b60405161022891906131bf565b60405180910390f35b34801561023d57600080fd5b5061025860048036038101906102539190613275565b610ba2565b60405161026591906132d0565b60405180910390f35b34801561027a57600080fd5b50610295600480360381019061029091906130f7565b610bc5565b005b3480156102a357600080fd5b506102ac610da7565b6040516102b991906132fa565b60405180910390f35b3480156102ce57600080fd5b506102e960048036038101906102e491906133fb565b610db1565b005b3480156102f757600080fd5b50610312600480360381019061030d9190613444565b610f81565b60405161031f91906132d0565b60405180910390f35b34801561033457600080fd5b5061033d610fb0565b60405161034a91906134b3565b60405180910390f35b34801561035f57600080fd5b5061037a600480360381019061037591906134ce565b610fb9565b005b34801561038857600080fd5b506103a3600480360381019061039e9190613546565b6111d9565b005b3480156103b157600080fd5b506103cc60048036038101906103c791906135be565b6113ab565b6040516103d991906135fa565b60405180910390f35b3480156103ee57600080fd5b506103f76113e9565b005b34801561040557600080fd5b50610420600480360381019061041b91906135be565b6115cf565b60405161042d91906135fa565b60405180910390f35b34801561044257600080fd5b5061045d60048036038101906104589190613615565b61160d565b60405161046d9493929190613671565b60405180910390f35b610490600480360381019061048b91906135be565b611732565b005b34801561049e57600080fd5b506104b960048036038101906104b491906135be565b61179d565b6040516104c79291906136bd565b60405180910390f35b3480156104dc57600080fd5b506104f760048036038101906104f291906135be565b6117ee565b60405161050491906132fa565b60405180910390f35b34801561051957600080fd5b50610522611837565b005b34801561053057600080fd5b5061053961184b565b60405161054691906135fa565b60405180910390f35b34801561055b57600080fd5b50610576600480360381019061057191906130f7565b611874565b005b34801561058457600080fd5b5061059f600480360381019061059a91906130f7565b6119f6565b6040516105ae939291906136e6565b60405180910390f35b3480156105c357600080fd5b506105cc611a43565b6040516105d991906131bf565b60405180910390f35b3480156105ee57600080fd5b5061060960048036038101906106049190613749565b611ad5565b005b34801561061757600080fd5b50610632600480360381019061062d9190613275565b611c53565b60405161063f91906132d0565b60405180910390f35b34801561065457600080fd5b5061065d611c76565b005b34801561066b57600080fd5b5061068660048036038101906106819190613839565b611e01565b005b34801561069457600080fd5b506106af60048036038101906106aa91906138ae565b612035565b005b3480156106bd57600080fd5b506106d860048036038101906106d3919061394d565b61231c565b6040516106e591906132fa565b60405180910390f35b3480156106fa57600080fd5b506107156004803603810190610710919061398d565b6123a3565b005b34801561072357600080fd5b5061073e600480360381019061073991906135be565b6127a9565b005b60006009826040516107529190613a38565b90815260200160405180910390209050600073ffffffffffffffffffffffffffffffffffffffff16600760003373ffffffffffffffffffffffffffffffffffffffff1673ffffffffffffffffffffffffffffffffffffffff16815260200190815260200160002060000160009054906101000a900473ffffffffffffffffffffffffffffffffffffffff1673ffffffffffffffffffffffffffffffffffffffff1603610833576040517f08c379a000000000000000000000000000000000000000000000000000000000815260040161082a90613a9b565b60405180910390fd5b6000805b600760003373ffffffffffffffffffffffffffffffffffffffff1673ffffffffffffffffffffffffffffffffffffffff1681526020019081526020016000206001018054905081101561094a57836040516020016108959190613a38565b60405160208183030381529060405280519060200120600760003373ffffffffffffffffffffffffffffffffffffffff1673ffffffffffffffffffffffffffffffffffffffff16815260200190815260200160002060010182815481106108ff576108fe613abb565b5b906000526020600020016040516020016109199190613be2565b604051602081830303815290604052805190602001200361093d576001915061094a565b8080600101915050610837565b508061098b576040517f08c379a000000000000000000000000000000000000000000000000000000000815260040161098290613c6b565b60405180910390fd5b8160000160009054906101000a900460ff166109dc576040517f08c379a00000000000000000000000000000000000000000000000000000000081526004016109d390613cd7565b60405180910390fd5b60008260010154905060008111610a28576040517f08c379a0000000000000000000000000000000000000000000000000000000008152600401610a1f90613d69565b60405180910390fd5b600060065482610a389190613de7565b905080471015610a7d576040517f08c379a0000000000000000000000000000000000000000000000000000000008152600401610a7490613e64565b60405180910390fd5b600084600101819055503373ffffffffffffffffffffffffffffffffffffffff166108fc829081150290604051600060405180830381858888f19350505050158015610acd573d6000803e3d6000fd5b507f04f1cd9c278166a000e1b082998f5bdbdf1b11c193aafbd7d1a90a0c9093a2ec853383604051610b0193929190613e84565b60405180910390a15050505050565b606060048054610b1f90613b19565b80601f0160208091040260200160405190810160405280929190818152602001828054610b4b90613b19565b8015610b985780601f10610b6d57610100808354040283529160200191610b98565b820191906000526020600020905b815481529060010190602001808311610b7b57829003601f168201915b5050505050905090565b600080610bad61282f565b9050610bba818585612837565b600191505092915050565b600073ffffffffffffffffffffffffffffffffffffffff16600760003373ffffffffffffffffffffffffffffffffffffffff1673ffffffffffffffffffffffffffffffffffffffff16815260200190815260200160002060000160009054906101000a900473ffffffffffffffffffffffffffffffffffffffff1673ffffffffffffffffffffffffffffffffffffffff1603610c96576040517f08c379a0000000000000000000000000000000000000000000000000000000008152600401610c8d90613a9b565b60405180910390fd5b6001600982604051610ca89190613a38565b908152602001604051809103902060000160006101000a81548160ff02191690831515021790555042600982604051610ce19190613a38565b908152602001604051809103902060040181905550600760003373ffffffffffffffffffffffffffffffffffffffff1673ffffffffffffffffffffffffffffffffffffffff16815260200190815260200160002060010181908060018154018082558091505060019003906000526020600020016000909190919091509081610d6a9190614059565b507f15d48131aaa6f330e286e6994c84b497c95a58b0c9d91ca5370322674df881f08133604051610d9c92919061412b565b60405180910390a150565b6000600354905090565b600073ffffffffffffffffffffffffffffffffffffffff16600860003373ffffffffffffffffffffffffffffffffffffffff1673ffffffffffffffffffffffffffffffffffffffff16815260200190815260200160002060000160009054906101000a900473ffffffffffffffffffffffffffffffffffffffff1673ffffffffffffffffffffffffffffffffffffffff1603610e82576040517f08c379a0000000000000000000000000000000000000000000000000000000008152600401610e79906141a7565b60405180910390fd5b60005b8151811015610f7d57600860003373ffffffffffffffffffffffffffffffffffffffff1673ffffffffffffffffffffffffffffffffffffffff168152602001908152602001600020600101828281518110610ee357610ee2613abb565b5b6020026020010151908060018154018082558091505060019003906000526020600020016000909190919091509081610f1c9190614059565b507f109ce24571ecd30f021582dae119d3722d5f8fca2b31890b534e313003e1572533838381518110610f5257610f51613abb565b5b6020026020010151604051610f689291906141c7565b60405180910390a18080600101915050610e85565b5050565b600080610f8c61282f565b9050610f99858285612849565b610fa48585856128dd565b60019150509392505050565b60006012905090565b600073ffffffffffffffffffffffffffffffffffffffff16600760003373ffffffffffffffffffffffffffffffffffffffff1673ffffffffffffffffffffffffffffffffffffffff16815260200190815260200160002060000160009054906101000a900473ffffffffffffffffffffffffffffffffffffffff1673ffffffffffffffffffffffffffffffffffffffff160361108a576040517f08c379a000000000000000000000000000000000000000000000000000000000815260040161108190613a9b565b60405180910390fd5b60098260405161109a9190613a38565b908152602001604051809103902060000160009054906101000a900460ff166110f8576040517f08c379a00000000000000000000000000000000000000000000000000000000081526004016110ef90613cd7565b60405180910390fd5b60005b81518110156111d4576009836040516111149190613a38565b908152602001604051809103902060020182828151811061113857611137613abb565b5b60200260200101519080600181540180825580915050600190039060005260206000200160009091909190915090816111719190614059565b507fe52307ed6834b1748d08ab83ab80743b3d9d94cc86659577f299a0bf02274e0f83338484815181106111a8576111a7613abb565b5b60200260200101516040516111bf939291906141f7565b60405180910390a180806001019150506110fb565b505050565b600073ffffffffffffffffffffffffffffffffffffffff16600760003373ffffffffffffffffffffffffffffffffffffffff1673ffffffffffffffffffffffffffffffffffffffff16815260200190815260200160002060000160009054906101000a900473ffffffffffffffffffffffffffffffffffffffff1673ffffffffffffffffffffffffffffffffffffffff16036112aa576040517f08c379a00000000000000000000000000000000000000000000000000000000081526004016112a190613a9b565b60405180910390fd5b6009826040516112ba9190613a38565b908152602001604051809103902060000160009054906101000a900460ff16611318576040517f08c379a000000000000000000000000000000000000000000000000000000000815260040161130f90613cd7565b60405180910390fd5b6009826040516113289190613a38565b90815260200160405180910390206002018190806001815401808255809150506001900390600052602060002001600090919091909150908161136b9190614059565b507fe52307ed6834b1748d08ab83ab80743b3d9d94cc86659577f299a0bf02274e0f82338360405161139f939291906141f7565b60405180910390a15050565b600a6020528060005260406000206000915090508060000160009054906101000a900473ffffffffffffffffffffffffffffffffffffffff16905081565b600073ffffffffffffffffffffffffffffffffffffffff16600860003373ffffffffffffffffffffffffffffffffffffffff1673ffffffffffffffffffffffffffffffffffffffff16815260200190815260200160002060000160009054906101000a900473ffffffffffffffffffffffffffffffffffffffff1673ffffffffffffffffffffffffffffffffffffffff16146114ba576040517f08c379a00000000000000000000000000000000000000000000000000000000081526004016114b190614288565b60405180910390fd5b33600860003373ffffffffffffffffffffffffffffffffffffffff1673ffffffffffffffffffffffffffffffffffffffff16815260200190815260200160002060000160006101000a81548173ffffffffffffffffffffffffffffffffffffffff021916908373ffffffffffffffffffffffffffffffffffffffff1602179055506000600860003373ffffffffffffffffffffffffffffffffffffffff1673ffffffffffffffffffffffffffffffffffffffff16815260200190815260200160002060020160006101000a81548160ff0219169083151502179055507f01e428601546e19350993364c26c5a618b33ef987abc24525c998748ae964294336040516115c591906135fa565b60405180910390a1565b60076020528060005260406000206000915090508060000160009054906101000a900473ffffffffffffffffffffffffffffffffffffffff16905081565b600b82805160208101820180518482526020830160208501208183528095505050505050818154811061163f57600080fd5b9060005260206000209060030201600091509150508060000160009054906101000a900473ffffffffffffffffffffffffffffffffffffffff16908060000160149054906101000a900460ff169080600101805461169c90613b19565b80601f01602080910402602001604051908101604052809291908181526020018280546116c890613b19565b80156117155780601f106116ea57610100808354040283529160200191611715565b820191906000526020600020905b8154815290600101906020018083116116f857829003601f168201915b5050505050908060020160009054906101000a900460ff16905084565b61173a6129d1565b6000341161177d576040517f08c379a0000000000000000000000000000000000000000000000000000000008152600401611774906142f4565b60405180910390fd5b60006006543461178d9190614314565b90506117998282612a58565b5050565b60086020528060005260406000206000915090508060000160009054906101000a900473ffffffffffffffffffffffffffffffffffffffff16908060020160009054906101000a900460ff16905082565b6000600160008373ffffffffffffffffffffffffffffffffffffffff1673ffffffffffffffffffffffffffffffffffffffff168152602001908152602001600020549050919050565b61183f6129d1565b6118496000612ada565b565b60008060009054906101000a900473ffffffffffffffffffffffffffffffffffffffff16905090565b600073ffffffffffffffffffffffffffffffffffffffff16600860003373ffffffffffffffffffffffffffffffffffffffff1673ffffffffffffffffffffffffffffffffffffffff16815260200190815260200160002060000160009054906101000a900473ffffffffffffffffffffffffffffffffffffffff1673ffffffffffffffffffffffffffffffffffffffff1603611945576040517f08c379a000000000000000000000000000000000000000000000000000000000815260040161193c906141a7565b60405180910390fd5b600860003373ffffffffffffffffffffffffffffffffffffffff1673ffffffffffffffffffffffffffffffffffffffff168152602001908152602001600020600101819080600181540180825580915050600190039060005260206000200160009091909190915090816119b99190614059565b507f109ce24571ecd30f021582dae119d3722d5f8fca2b31890b534e313003e1572533826040516119eb9291906141c7565b60405180910390a150565b6009818051602081018201805184825260208301602085012081835280955050505050506000915090508060000160009054906101000a900460ff16908060010154908060040154905083565b606060058054611a5290613b19565b80601f0160208091040260200160405190810160405280929190818152602001828054611a7e90613b19565b8015611acb5780601f10611aa057610100808354040283529160200191611acb565b820191906000526020600020905b815481529060010190602001808311611aae57829003601f168201915b5050505050905090565b3373ffffffffffffffffffffffffffffffffffffffff16600a60003373ffffffffffffffffffffffffffffffffffffffff1673ffffffffffffffffffffffffffffffffffffffff16815260200190815260200160002060000160009054906101000a900473ffffffffffffffffffffffffffffffffffffffff1673ffffffffffffffffffffffffffffffffffffffff1614611ba5576040517f08c379a0000000000000000000000000000000000000000000000000000000008152600401611b9c906143c8565b60405180910390fd5b6001600a60003373ffffffffffffffffffffffffffffffffffffffff1673ffffffffffffffffffffffffffffffffffffffff16815260200190815260200160002060010160008360ff1660ff16815260200190815260200160002060006101000a81548160ff0219169083151502179055507f935cc9c85df5982b3f9ea7066abbbcc531f12e40cf46c62ba6f369ba28302b0b3382604051611c489291906143e8565b60405180910390a150565b600080611c5e61282f565b9050611c6b8185856128dd565b600191505092915050565b600073ffffffffffffffffffffffffffffffffffffffff16600760003373ffffffffffffffffffffffffffffffffffffffff1673ffffffffffffffffffffffffffffffffffffffff16815260200190815260200160002060000160009054906101000a900473ffffffffffffffffffffffffffffffffffffffff1673ffffffffffffffffffffffffffffffffffffffff1614611d47576040517f08c379a0000000000000000000000000000000000000000000000000000000008152600401611d3e9061445d565b60405180910390fd5b33600760003373ffffffffffffffffffffffffffffffffffffffff1673ffffffffffffffffffffffffffffffffffffffff16815260200190815260200160002060000160006101000a81548173ffffffffffffffffffffffffffffffffffffffff021916908373ffffffffffffffffffffffffffffffffffffffff1602179055507f64432bf33d97c6e03519a3a2880f032d7d261b5a7e3119fbfeaef601431d274933604051611df791906135fa565b60405180910390a1565b600073ffffffffffffffffffffffffffffffffffffffff16600a60003373ffffffffffffffffffffffffffffffffffffffff1673ffffffffffffffffffffffffffffffffffffffff16815260200190815260200160002060000160009054906101000a900473ffffffffffffffffffffffffffffffffffffffff1673ffffffffffffffffffffffffffffffffffffffff1614611ed2576040517f08c379a0000000000000000000000000000000000000000000000000000000008152600401611ec9906144c9565b60405180910390fd5b33600a60003373ffffffffffffffffffffffffffffffffffffffff1673ffffffffffffffffffffffffffffffffffffffff16815260200190815260200160002060000160006101000a81548173ffffffffffffffffffffffffffffffffffffffff021916908373ffffffffffffffffffffffffffffffffffffffff16021790555060005b8151811015611ff8576001600a60003373ffffffffffffffffffffffffffffffffffffffff1673ffffffffffffffffffffffffffffffffffffffff1681526020019081526020016000206001016000848481518110611fb857611fb7613abb565b5b602002602001015160ff1660ff16815260200190815260200160002060006101000a81548160ff0219169083151502179055508080600101915050611f56565b507fc0ce3e9ca33fc82f8616bb402a51646a65d1a914877486f1236cb80cbd7b4119338260405161202a9291906145a7565b60405180910390a150565b6000600a60003373ffffffffffffffffffffffffffffffffffffffff1673ffffffffffffffffffffffffffffffffffffffff16815260200190815260200160002090503373ffffffffffffffffffffffffffffffffffffffff168160000160009054906101000a900473ffffffffffffffffffffffffffffffffffffffff1673ffffffffffffffffffffffffffffffffffffffff161480156120fc57508060010160008560ff1660ff16815260200190815260200160002060009054906101000a900460ff165b61213b576040517f08c379a000000000000000000000000000000000000000000000000000000000815260040161213290614623565b60405180910390fd5b600060098660405161214d9190613a38565b908152602001604051809103902090508060000160009054906101000a900460ff166121ae576040517f08c379a00000000000000000000000000000000000000000000000000000000081526004016121a590613cd7565b60405180910390fd5b600060405180608001604052803373ffffffffffffffffffffffffffffffffffffffff1681526020018760ff1681526020018681526020018515158152509050600b876040516121fe9190613a38565b908152602001604051809103902081908060018154018082558091505060019003906000526020600020906003020160009091909190915060008201518160000160006101000a81548173ffffffffffffffffffffffffffffffffffffffff021916908373ffffffffffffffffffffffffffffffffffffffff16021790555060208201518160000160146101000a81548160ff021916908360ff16021790555060408201518160010190816122b39190614059565b5060608201518160020160006101000a81548160ff02191690831515021790555050507f182ab3c4daa576aed0a1efb053f384777ef9286f06bed87ea603480597a9aa2f8733878760405161230b9493929190614643565b60405180910390a150505050505050565b6000600260008473ffffffffffffffffffffffffffffffffffffffff1673ffffffffffffffffffffffffffffffffffffffff16815260200190815260200160002060008373ffffffffffffffffffffffffffffffffffffffff1673ffffffffffffffffffffffffffffffffffffffff16815260200190815260200160002054905092915050565b600073ffffffffffffffffffffffffffffffffffffffff16600860003373ffffffffffffffffffffffffffffffffffffffff1673ffffffffffffffffffffffffffffffffffffffff16815260200190815260200160002060000160009054906101000a900473ffffffffffffffffffffffffffffffffffffffff1673ffffffffffffffffffffffffffffffffffffffff1603612474576040517f08c379a000000000000000000000000000000000000000000000000000000000815260040161246b906141a7565b60405180910390fd5b6009836040516124849190613a38565b908152602001604051809103902060000160009054906101000a900460ff166124e2576040517f08c379a00000000000000000000000000000000000000000000000000000000081526004016124d990613cd7565b60405180910390fd5b6124ed3330846128dd565b816009846040516124fe9190613a38565b908152602001604051809103902060030160003373ffffffffffffffffffffffffffffffffffffffff1673ffffffffffffffffffffffffffffffffffffffff168152602001908152602001600020600001600082825461255e9190614696565b92505081905550426009846040516125769190613a38565b908152602001604051809103902060030160003373ffffffffffffffffffffffffffffffffffffffff1673ffffffffffffffffffffffffffffffffffffffff1681526020019081526020016000206001018190555080426125d79190614696565b6009846040516125e79190613a38565b908152602001604051809103902060030160003373ffffffffffffffffffffffffffffffffffffffff1673ffffffffffffffffffffffffffffffffffffffff16815260200190815260200160002060020181905550600060098460405161264e9190613a38565b908152602001604051809103902060030160003373ffffffffffffffffffffffffffffffffffffffff1673ffffffffffffffffffffffffffffffffffffffff168152602001908152602001600020600301819055507fd3f0d9337e43b7ad5163c60adb4d6dfeac7c70845ff1174829734922b5f5c1dd8333846009876040516126d79190613a38565b908152602001604051809103902060030160003373ffffffffffffffffffffffffffffffffffffffff1673ffffffffffffffffffffffffffffffffffffffff168152602001908152602001600020600101546009886040516127399190613a38565b908152602001604051809103902060030160003373ffffffffffffffffffffffffffffffffffffffff1673ffffffffffffffffffffffffffffffffffffffff1681526020019081526020016000206002015460405161279c9594939291906146ca565b60405180910390a1505050565b6127b16129d1565b600073ffffffffffffffffffffffffffffffffffffffff168173ffffffffffffffffffffffffffffffffffffffff16036128235760006040517f1e4fbdf700000000000000000000000000000000000000000000000000000000815260040161281a91906135fa565b60405180910390fd5b61282c81612ada565b50565b600033905090565b6128448383836001612b9e565b505050565b6000612855848461231c565b90507fffffffffffffffffffffffffffffffffffffffffffffffffffffffffffffffff81146128d757818110156128c7578281836040517ffb8f41b20000000000000000000000000000000000000000000000000000000081526004016128be93929190614724565b60405180910390fd5b6128d684848484036000612b9e565b5b50505050565b600073ffffffffffffffffffffffffffffffffffffffff168373ffffffffffffffffffffffffffffffffffffffff160361294f5760006040517f96c6fd1e00000000000000000000000000000000000000000000000000000000815260040161294691906135fa565b60405180910390fd5b600073ffffffffffffffffffffffffffffffffffffffff168273ffffffffffffffffffffffffffffffffffffffff16036129c15760006040517fec442f050000000000000000000000000000000000000000000000000000000081526004016129b891906135fa565b60405180910390fd5b6129cc838383612d75565b505050565b6129d961282f565b73ffffffffffffffffffffffffffffffffffffffff166129f761184b565b73ffffffffffffffffffffffffffffffffffffffff1614612a5657612a1a61282f565b6040517f118cdaa7000000000000000000000000000000000000000000000000000000008152600401612a4d91906135fa565b60405180910390fd5b565b600073ffffffffffffffffffffffffffffffffffffffff168273ffffffffffffffffffffffffffffffffffffffff1603612aca5760006040517fec442f05000000000000000000000000000000000000000000000000000000008152600401612ac191906135fa565b60405180910390fd5b612ad660008383612d75565b5050565b60008060009054906101000a900473ffffffffffffffffffffffffffffffffffffffff169050816000806101000a81548173ffffffffffffffffffffffffffffffffffffffff021916908373ffffffffffffffffffffffffffffffffffffffff1602179055508173ffffffffffffffffffffffffffffffffffffffff168173ffffffffffffffffffffffffffffffffffffffff167f8be0079c531659141344cd1fd0a4f28419497f9722a3daafe3b4186f6b6457e060405160405180910390a35050565b600073ffffffffffffffffffffffffffffffffffffffff168473ffffffffffffffffffffffffffffffffffffffff1603612c105760006040517fe602df05000000000000000000000000000000000000000000000000000000008152600401612c0791906135fa565b60405180910390fd5b600073ffffffffffffffffffffffffffffffffffffffff168373ffffffffffffffffffffffffffffffffffffffff1603612c825760006040517f94280d62000000000000000000000000000000000000000000000000000000008152600401612c7991906135fa565b60405180910390fd5b81600260008673ffffffffffffffffffffffffffffffffffffffff1673ffffffffffffffffffffffffffffffffffffffff16815260200190815260200160002060008573ffffffffffffffffffffffffffffffffffffffff1673ffffffffffffffffffffffffffffffffffffffff168152602001908152602001600020819055508015612d6f578273ffffffffffffffffffffffffffffffffffffffff168473ffffffffffffffffffffffffffffffffffffffff167f8c5be1e5ebec7d5bd14f71427d1e84f3dd0314c0f7b2291e5b200ac8c7c3b92584604051612d6691906132fa565b60405180910390a35b50505050565b600073ffffffffffffffffffffffffffffffffffffffff168373ffffffffffffffffffffffffffffffffffffffff1603612dc7578060036000828254612dbb9190614696565b92505081905550612e9c565b6000600160008573ffffffffffffffffffffffffffffffffffffffff1673ffffffffffffffffffffffffffffffffffffffff16815260200190815260200160002054905081811015612e54578381836040517fe450d38c000000000000000000000000000000000000000000000000000000008152600401612e4b93929190614724565b60405180910390fd5b818103600160008673ffffffffffffffffffffffffffffffffffffffff1673ffffffffffffffffffffffffffffffffffffffff16815260200190815260200160002081905550505b600073ffffffffffffffffffffffffffffffffffffffff168273ffffffffffffffffffffffffffffffffffffffff1603612ee55780600360008282540392505081905550612f33565b80600160008473ffffffffffffffffffffffffffffffffffffffff1673ffffffffffffffffffffffffffffffffffffffff168152602001908152602001600020600082825401925050819055505b8173ffffffffffffffffffffffffffffffffffffffff168373ffffffffffffffffffffffffffffffffffffffff167fddf252ad1be2c89b69c2b068fc378daa952ba7f163c4a11628f55a4df523b3ef83604051612f9091906132fa565b60405180910390a3505050565b6000604051905090565b600080fd5b600080fd5b600080fd5b600080fd5b6000601f19601f8301169050919050565b7f4e487b7100000000000000000000000000000000000000000000000000000000600052604160045260246000fd5b61300482612fbb565b810181811067ffffffffffffffff8211171561302357613022612fcc565b5b80604052505050565b6000613036612f9d565b90506130428282612ffb565b919050565b600067ffffffffffffffff82111561306257613061612fcc565b5b61306b82612fbb565b9050602081019050919050565b82818337600083830152505050565b600061309a61309584613047565b61302c565b9050828152602081018484840111156130b6576130b5612fb6565b5b6130c1848285613078565b509392505050565b600082601f8301126130de576130dd612fb1565b5b81356130ee848260208601613087565b91505092915050565b60006020828403121561310d5761310c612fa7565b5b600082013567ffffffffffffffff81111561312b5761312a612fac565b5b613137848285016130c9565b91505092915050565b600081519050919050565b600082825260208201905092915050565b60005b8381101561317a57808201518184015260208101905061315f565b60008484015250505050565b600061319182613140565b61319b818561314b565b93506131ab81856020860161315c565b6131b481612fbb565b840191505092915050565b600060208201905081810360008301526131d98184613186565b905092915050565b600073ffffffffffffffffffffffffffffffffffffffff82169050919050565b600061320c826131e1565b9050919050565b61321c81613201565b811461322757600080fd5b50565b60008135905061323981613213565b92915050565b6000819050919050565b6132528161323f565b811461325d57600080fd5b50565b60008135905061326f81613249565b92915050565b6000806040838503121561328c5761328b612fa7565b5b600061329a8582860161322a565b92505060206132ab85828601613260565b9150509250929050565b60008115159050919050565b6132ca816132b5565b82525050565b60006020820190506132e560008301846132c1565b92915050565b6132f48161323f565b82525050565b600060208201905061330f60008301846132eb565b92915050565b600067ffffffffffffffff8211156133305761332f612fcc565b5b602082029050602081019050919050565b600080fd5b600061335961335484613315565b61302c565b9050808382526020820190506020840283018581111561337c5761337b613341565b5b835b818110156133c357803567ffffffffffffffff8111156133a1576133a0612fb1565b5b8086016133ae89826130c9565b8552602085019450505060208101905061337e565b5050509392505050565b600082601f8301126133e2576133e1612fb1565b5b81356133f2848260208601613346565b91505092915050565b60006020828403121561341157613410612fa7565b5b600082013567ffffffffffffffff81111561342f5761342e612fac565b5b61343b848285016133cd565b91505092915050565b60008060006060848603121561345d5761345c612fa7565b5b600061346b8682870161322a565b935050602061347c8682870161322a565b925050604061348d86828701613260565b9150509250925092565b600060ff82169050919050565b6134ad81613497565b82525050565b60006020820190506134c860008301846134a4565b92915050565b600080604083850312156134e5576134e4612fa7565b5b600083013567ffffffffffffffff81111561350357613502612fac565b5b61350f858286016130c9565b925050602083013567ffffffffffffffff8111156135305761352f612fac565b5b61353c858286016133cd565b9150509250929050565b6000806040838503121561355d5761355c612fa7565b5b600083013567ffffffffffffffff81111561357b5761357a612fac565b5b613587858286016130c9565b925050602083013567ffffffffffffffff8111156135a8576135a7612fac565b5b6135b4858286016130c9565b9150509250929050565b6000602082840312156135d4576135d3612fa7565b5b60006135e28482850161322a565b91505092915050565b6135f481613201565b82525050565b600060208201905061360f60008301846135eb565b92915050565b6000806040838503121561362c5761362b612fa7565b5b600083013567ffffffffffffffff81111561364a57613649612fac565b5b613656858286016130c9565b925050602061366785828601613260565b9150509250929050565b600060808201905061368660008301876135eb565b61369360208301866134a4565b81810360408301526136a58185613186565b90506136b460608301846132c1565b95945050505050565b60006040820190506136d260008301856135eb565b6136df60208301846132c1565b9392505050565b60006060820190506136fb60008301866132c1565b61370860208301856132eb565b61371560408301846132eb565b949350505050565b61372681613497565b811461373157600080fd5b50565b6000813590506137438161371d565b92915050565b60006020828403121561375f5761375e612fa7565b5b600061376d84828501613734565b91505092915050565b600067ffffffffffffffff82111561379157613790612fcc565b5b602082029050602081019050919050565b60006137b56137b084613776565b61302c565b905080838252602082019050602084028301858111156137d8576137d7613341565b5b835b8181101561380157806137ed8882613734565b8452602084019350506020810190506137da565b5050509392505050565b600082601f8301126138205761381f612fb1565b5b81356138308482602086016137a2565b91505092915050565b60006020828403121561384f5761384e612fa7565b5b600082013567ffffffffffffffff81111561386d5761386c612fac565b5b6138798482850161380b565b91505092915050565b61388b816132b5565b811461389657600080fd5b50565b6000813590506138a881613882565b92915050565b600080600080608085870312156138c8576138c7612fa7565b5b600085013567ffffffffffffffff8111156138e6576138e5612fac565b5b6138f2878288016130c9565b945050602061390387828801613734565b935050604085013567ffffffffffffffff81111561392457613923612fac565b5b613930878288016130c9565b925050606061394187828801613899565b91505092959194509250565b6000806040838503121561396457613963612fa7565b5b60006139728582860161322a565b92505060206139838582860161322a565b9150509250929050565b6000806000606084860312156139a6576139a5612fa7565b5b600084013567ffffffffffffffff8111156139c4576139c3612fac565b5b6139d0868287016130c9565b93505060206139e186828701613260565b92505060406139f286828701613260565b9150509250925092565b600081905092915050565b6000613a1282613140565b613a1c81856139fc565b9350613a2c81856020860161315c565b80840191505092915050565b6000613a448284613a07565b915081905092915050565b7f446576656c6f706572206e6f7420726567697374657265640000000000000000600082015250565b6000613a8560188361314b565b9150613a9082613a4f565b602082019050919050565b60006020820190508181036000830152613ab481613a78565b9050919050565b7f4e487b7100000000000000000000000000000000000000000000000000000000600052603260045260246000fd5b7f4e487b7100000000000000000000000000000000000000000000000000000000600052602260045260246000fd5b60006002820490506001821680613b3157607f821691505b602082108103613b4457613b43613aea565b5b50919050565b60008190508160005260206000209050919050565b60008154613b6c81613b19565b613b7681866139fc565b94506001821660008114613b915760018114613ba657613bd9565b60ff1983168652811515820286019350613bd9565b613baf85613b4a565b60005b83811015613bd157815481890152600182019150602081019050613bb2565b838801955050505b50505092915050565b6000613bee8284613b5f565b915081905092915050565b7f43616c6c6572206973206e6f7420746865206f776e6572206f6620746865207060008201527f726f6a6563740000000000000000000000000000000000000000000000000000602082015250565b6000613c5560268361314b565b9150613c6082613bf9565b604082019050919050565b60006020820190508181036000830152613c8481613c48565b9050919050565b7f50726f6a656374206973206e6f74206163746976650000000000000000000000600082015250565b6000613cc160158361314b565b9150613ccc82613c8b565b602082019050919050565b60006020820190508181036000830152613cf081613cb4565b9050919050565b7f4e6f2066756e647320617661696c61626c6520666f722077697468647261776160008201527f6c00000000000000000000000000000000000000000000000000000000000000602082015250565b6000613d5360218361314b565b9150613d5e82613cf7565b604082019050919050565b60006020820190508181036000830152613d8281613d46565b9050919050565b7f4e487b7100000000000000000000000000000000000000000000000000000000600052601260045260246000fd5b7f4e487b7100000000000000000000000000000000000000000000000000000000600052601160045260246000fd5b6000613df28261323f565b9150613dfd8361323f565b925082613e0d57613e0c613d89565b5b828204905092915050565b7f496e73756666696369656e742045544820696e20636f6e747261637400000000600082015250565b6000613e4e601c8361314b565b9150613e5982613e18565b602082019050919050565b60006020820190508181036000830152613e7d81613e41565b9050919050565b60006060820190508181036000830152613e9e8186613186565b9050613ead60208301856135eb565b613eba60408301846132eb565b949350505050565b60006020601f8301049050919050565b600082821b905092915050565b600060088302613f0f7fffffffffffffffffffffffffffffffffffffffffffffffffffffffffffffffff82613ed2565b613f198683613ed2565b95508019841693508086168417925050509392505050565b6000819050919050565b6000613f56613f51613f4c8461323f565b613f31565b61323f565b9050919050565b6000819050919050565b613f7083613f3b565b613f84613f7c82613f5d565b848454613edf565b825550505050565b600090565b613f99613f8c565b613fa4818484613f67565b505050565b5b81811015613fc857613fbd600082613f91565b600181019050613faa565b5050565b601f82111561400d57613fde81613b4a565b613fe784613ec2565b81016020851015613ff6578190505b61400a61400285613ec2565b830182613fa9565b50505b505050565b600082821c905092915050565b600061403060001984600802614012565b1980831691505092915050565b6000614049838361401f565b9150826002028217905092915050565b61406282613140565b67ffffffffffffffff81111561407b5761407a612fcc565b5b6140858254613b19565b614090828285613fcc565b600060209050601f8311600181146140c357600084156140b1578287015190505b6140bb858261403d565b865550614123565b601f1984166140d186613b4a565b60005b828110156140f9578489015182556001820191506020850194506020810190506140d4565b868310156141165784890151614112601f89168261401f565b8355505b6001600288020188555050505b505050505050565b600060408201905081810360008301526141458185613186565b905061415460208301846135eb565b9392505050565b7f496e766573746f72206e6f742072656769737465726564000000000000000000600082015250565b600061419160178361314b565b915061419c8261415b565b602082019050919050565b600060208201905081810360008301526141c081614184565b9050919050565b60006040820190506141dc60008301856135eb565b81810360208301526141ee8184613186565b90509392505050565b600060608201905081810360008301526142118186613186565b905061422060208301856135eb565b81810360408301526142328184613186565b9050949350505050565b7f496e766573746f7220616c726561647920726567697374657265640000000000600082015250565b6000614272601b8361314b565b915061427d8261423c565b602082019050919050565b600060208201905081810360008301526142a181614265565b9050919050565b7f4e6f204554482073656e74000000000000000000000000000000000000000000600082015250565b60006142de600b8361314b565b91506142e9826142a8565b602082019050919050565b6000602082019050818103600083015261430d816142d1565b9050919050565b600061431f8261323f565b915061432a8361323f565b92508282026143388161323f565b9150828204841483151761434f5761434e613db8565b5b5092915050565b7f4e6f7420617574686f72697a656420746f20616464207370656369616c697a6160008201527f74696f6e00000000000000000000000000000000000000000000000000000000602082015250565b60006143b260248361314b565b91506143bd82614356565b604082019050919050565b600060208201905081810360008301526143e1816143a5565b9050919050565b60006040820190506143fd60008301856135eb565b61440a60208301846134a4565b9392505050565b7f446576656c6f70657220616c7265616479207265676973746572656400000000600082015250565b6000614447601c8361314b565b915061445282614411565b602082019050919050565b600060208201905081810360008301526144768161443a565b9050919050565b7f41756469746f7220616c72656164792072656769737465726564000000000000600082015250565b60006144b3601a8361314b565b91506144be8261447d565b602082019050919050565b600060208201905081810360008301526144e2816144a6565b9050919050565b600081519050919050565b600082825260208201905092915050565b6000819050602082019050919050565b61451e81613497565b82525050565b60006145308383614515565b60208301905092915050565b6000602082019050919050565b6000614554826144e9565b61455e81856144f4565b935061456983614505565b8060005b8381101561459a5781516145818882614524565b975061458c8361453c565b92505060018101905061456d565b5085935050505092915050565b60006040820190506145bc60008301856135eb565b81810360208301526145ce8184614549565b90509392505050565b7f4e6f7420617574686f72697a656420746f206175646974000000000000000000600082015250565b600061460d60178361314b565b9150614618826145d7565b602082019050919050565b6000602082019050818103600083015261463c81614600565b9050919050565b6000608082019050818103600083015261465d8187613186565b905061466c60208301866135eb565b818103604083015261467e8185613186565b905061468d60608301846132c1565b95945050505050565b60006146a18261323f565b91506146ac8361323f565b92508282019050808211156146c4576146c3613db8565b5b92915050565b600060a08201905081810360008301526146e48188613186565b90506146f360208301876135eb565b61470060408301866132eb565b61470d60608301856132eb565b61471a60808301846132eb565b9695505050505050565b600060608201905061473960008301866135eb565b61474660208301856132eb565b61475360408301846132eb565b94935050505056fea26469706673582212208d231c8371bd77bda52f595132f7426476811615e8f933ca7cede92e0dcc85a364736f6c63430008180033",
  "linkReferences": {},
  "deployedLinkReferences": {}
}